:100000000C9434000C943E000C943E000C943E0082
:100010000C943E000C943E000C943E000C943E0068
:100020000C943E000C943E000C943E000C943E0058
:100030000C943E000C943E000C943E000C943E0048
:100040000C943E000C943E000C943E000C943E0038
:100050000C943E000C943E000C943E000C943E0028
:100060000C943E000C943E0011241FBECFEFD8E04C
:10007000DEBFCDBF0E9440000C94E7000C9400004E
:100080000F931F93CF93DF9386B1846186B91B9A38
:100090000E94BE0000E010E020E030E0C0E9D1E0C6
:1000A000329902C000E006C0349902C001E002C0EB
:1000B0001B9B02E02A303105A9F4002329F41F5FBD
:1000C0001A3039F410E005C0013051F4115008F431
:1000D00019E082E00E94A400812F805D0E948800C8
:1000E00020E030E084EF91E0FE013197F1F70197D5
:1000F000D9F72F5F3F4FD4CF9BB19F709BB99BB176
:100100008295807F982B9BB9299A299A29980895DE
:100110001F93182F289A82958F700E947C00812F40
:100120000E947C0080E49FE10197F1F71F91089500
:10013000CF93DF93EC0102C00E948800899188234D
:10014000D9F7DF91CF9108951F93182F28988295A2
:100150008F700E947C00812F0E947C0080E49FE1D0
:100160000197F1F71F910895882319F4862F80587D
:1001700002C0862F80540E94A400089584B1836039
:1001800084B98AB1806F8AB980E69AEE0197F1F757
:1001900080E30E947C0080E29EE40197F1F780E317
:1001A0000E947C0080EE91E00197F1F780E30E94CD
:1001B0007C0080E20E947C0080E49FE10197F1F7DF
:1001C00088E20E94A4008FE00E94A4000895F894A1
:0201D000FFCF5F
:00000001FF
